:020000040800F2
:100000005004002001010008730B0008C50A000815
:10001000710B00086D010008A10D00080000000030
:10002000000000000000000000000000970B000826
:100030006F01000800000000950B0008990B0008F4
:100040001B0100081B0100081B0100081B01000820
:100050001B0100081B0100081B0100081B01000810
:100060001B0100081B0100081B0100081B01000800
:100070001B0100081B0100081B0100081B010008F0
:100080001B0100081B0100081B0100081B010008E0
:100090001B0100081B0100081B0100081B010008D0
:1000A0001B0100081B0100081B0100081B010008C0
:1000B0001B0100081B0100081B0100081B010008B0
:1000C0001B0100081B0100081B0100081B010008A0
:1000D0001B0100081B0100081B0100081B01000890
:1000E000710100081B0100081B010008DFF80CD09B
:1000F00000F02AF800480047C10D00085004002015
:100100000648804706480047FEE7FEE7FEE7FEE7B1
:10011000FEE7FEE7FEE7FEE7FEE7FEE7E90B000885
:10012000ED000008D2B201E000F8012B491EFBD21D
:1001300070470022F6E710B513460A4604461946F2
:10014000FFF7F0FF204610BD064C074D06E0E068C3
:1001500040F0010394E8070098471034AC42F6D30E
:10016000FFF7C8FF100E0008300E0008FEE77047CA
:1001700010B54FF4005000F013F8074C2021204632
:1001800000F0F8F830B100222046BDE810402021F0
:1001900000F0F5B80122F7E70008014070470000C1
:1001A000044910B50A68024202D00860FFF7F6FF62
:1001B00010BD0000140401402DE9F84FDFF890A1B4
:1001C00000220AF1040B144601274FF00F090BF12E
:1001D000040E00BF0B6807FA04F52B40AB4274D144
:1001E000DFF870C14E68A6EB0C0866452BD00DDC1D
:1001F000032E34D005DC36B3012E19D0022E2FD1B8
:100200001BE0112E16D0122E2AD119E0B8F5881F46
:1002100019D006DCB8F5803F15D0B8F5801F1FD186
:1002200011E0B8F5001F0ED0B8F5041F18D10AE090
:10023000CA6815E0CA68121D12E0CA6808320FE0E9
:10024000CA680C320CE08A682AB1012A4FF0080211
:1002500003D0456104E0042202E0056100E00022D1
:10026000FF2B01D8064601E000F104064FEA8405A1
:1002700001D9A5F12005D6F800C009FA05F82CEA45
:10028000080C02FA05F54CEA050CC6F800C04D68EA
:10029000ED0057D5304DAE6946F00106AE61AD694F
:1002A00024F0030605F0010500952C4D06EB050C26
:1002B000DCF80850A6074FEA167809FA08F6B543A5
:1002C000274EB04202D1002610E03BE0254EB0425E
:1002D00001D101260AE0244EB04201D1022605E0F8
:1002E000224EB04201D1032600E0042606FA08F6A9
:1002F0002E43CCF808604D68DAF80060ED035546EF
:1003000001D51E4300E09E432E604D68DBF800607F
:10031000AD035D4601D51E4300E09E432E604D684F
:10032000DEF80060ED02754601D51E4300E09E43F5
:100330002E604D68AD020E4D2E6801D51E4300E0C3
:100340009E432E60641C102CFFF444AFBDE8F88F70
:1003500000040140000011100010024000000140A4
:1003600000080140000C0140001001400014014051
:100370000C0401408068084000D0012070470AB199
:10038000016170470904FBE701488068704700007D
:1003900000000020024881680278114481607047A3
:1003A00000000020074810B5016841F0100101600D
:1003B000032000F073F8002000F006F800F024F8A5
:1003C000002010BD0020024070B50D4D04464FF4D2
:1003D0007A712878B1FBF0F00A490968B1FBF0F0B6
:1003E00000F0FCFA48B9102C07D200222146501E1A
:1003F00000F034F800206C6070BD012070BD00007A
:10040000000000200C0000200C4808B5816941F074
:1004100001018161816901F001010091C16941F02F
:100420008051C161C06900F080500090044841686B
:1004300021F0E06141F00071416008BD0010024010
:100440000000014000F01F0201219140400980009E
:1004500000F1E020C0F8001170470000F0B40E4B2E
:100460001B680C46C3F30223C3F10705042D00D912
:100470000425191D072901D2002300E0DB1E0126F7
:1004800006FA05F1491E214099409E40761E16400D
:100490003143F0BC00F06EBB0CED00E0064900F00B
:1004A000070208684FF6FF03184040EA0220034A9B
:1004B00010430860704700000CED00E00000FA05F2
:1004C0002DE9F047DFF8548105460E46D8F80000C4
:1004D00000F00700B0420CD2D8F8001021F007015C
:1004E0003143C8F80010D8F8000000F00700B0420F
:1004F0006FD128684A4C810712D5400703D5606840
:1005000040F4E06060602878000703D5606840F43C
:10051000605060606068A96820F0F0000843606087
:100520002878C00744D06868012816D021680228BE
:1005300016D0890700294CDA616821F003010143D4
:100540006160FFF721FF6968074641F288300129A1
:100550000ED00229814618D026E021688903E9E7F8
:100560008901E7E7FFF710FFC11B494501D918E0F2
:1005700081466068C0F381000128F3D118E000BF14
:10058000FFF702FFC11B49450BD86068C0F381002B
:100590000228F5D10CE000BFFFF7F6FEC11B49456C
:1005A00002D90320BDE8F087606810F00C0FF3D18A
:1005B000D8F80010404601F00701B1420BD901689C
:1005C00021F0070131430160006800F00700B042EC
:1005D00001D00120E6E72878400705D56068E96882
:1005E00020F4E060084360602878000706D5606862
:1005F000296920F4605040EAC100606000F036F8DC
:100600006168084AC1F30311515CC840064908609B
:100610000020FFF7D9FE0020C4E7000000200240C0
:1006200000100240F80D00080C00002004480549A5
:1006300000684968044AC1F30221515CC840704710
:100640000C00002000100240080E00080448054974
:1006500000684968044AC1F3C221515CC840704730
:100660000C00002000100240080E000812A185B006
:100670000FC98DE80F0014A0144A00680490516857
:10068000134801F00C03042B10D0082B0ED1C1F33A
:100690008343C9031DF803000AD5516804AAC1F3B6
:1006A0004041515C0A4A5043B0FBF1F005B070473D
:1006B00008494843FAE70000020304050607080951
:1006C0000A0B0C0D0E0F101001020000001002406A
:1006D00000127A0000093D002DE9F84F0446007829
:1006E000B94DC00748D06868C0F38100012807D021
:1006F0006868C0F38100022809D16868C00306D584
:100700002868800338D5606800286FD034E06068BE
:10071000B0F5803F0BD010B1B0F5A02F11D02868F4
:1007200020F480302860286820F4802002E02868C7
:1007300040F480302860606888B1FFF725FE0646E7
:1007400009E0286840F480202860F0E7FFF71CFEED
:10075000801B642875D828688003F7D50CE0FFF764
:1007600013FE064605E000BFFFF70EFE801B64285F
:10077000F0D828688003F7D42078944E80074FF093
:1007800001094FF000083BD5686810F00C0F07D046
:100790006868C0F38100022809D16868C00306D4E4
:1007A0002868800714D5206901281FD110E020692E
:1007B000B0B1C6F80090FFF7E7FD074605E000BFBF
:1007C000FFF7E2FDC01B0228C4D828688007F7D5D0
:1007D0002868616920F0F80040EAC10028600FE055
:1007E000C6F80080FFF7D0FD074606E0E9E000BF4D
:1007F000FFF7CAFDC01B022823D828688007F7D45A
:10080000207800072CD57248A169D9B1C0F80090B2
:10081000FFF7BAFD074604E0FFF7B6FDC01B02284C
:100820000FD8686A8007F7D56A484FF4FA51006814
:10083000B0FBF1F0009000BF0098411E0091FAD289
:100840000EE080E0C0F80080FFF79EFD074604E060
:10085000FFF79AFDC01B022875D8686A8007F7D495
:100860002078400760D5E8690027C00008D4E8690F
:1008700040F08050E861E869012700F08050009066
:1008800055480168C90513D40168834641F4807155
:100890000160FFF779FD824606E000BFFFF774FDB7
:1008A000A0EB0A0064284ED8DBF80000C005F5D59F
:1008B000E06801280AD008B1052813D0286A20F082
:1008C00001002862286A20F0040002E0286A40F053
:1008D00001002862E06841F2883B98B1FFF754FDBF
:1008E00082460BE0286A40F004002862EEE700BF71
:1008F000FFF74AFDA0EB0A0159455AD8286A80073C
:10090000F6D50CE0FFF740FD824605E0FFF73CFD21
:10091000A0EB0A0159454CD8286A8007F6D41FB1CC
:10092000E86920F08050E861E06988B36968C1F344
:100930008101022945D00228C6F8608004D0FFF763
:1009400023FD044638E034E0FFF71EFD074604E0CF
:10095000FFF71AFDC01B02282BD828688001F7D4A6
:10096000206AB0F5803F05D16868A16820F40030A6
:1009700008436860D4E908010843696821F47411E8
:1009800008436860C6F86090FFF7FEFC044606E086
:1009900015E000BFFFF7F8FC001B022809D8286803
:1009A0008001F7D50BE000BFFFF7EEFC001B02282B
:1009B00002D90320BDE8F88F28688001F4D4002014
:1009C000F8E70120F6E70000001002400000424274
:1009D000800442420C0000200070004010B5401E10
:1009E000B0F1807F01D3012010BD4FF0E0246061A1
:1009F0000F21601700F0BEF80020A06107202061E1
:100A0000002010BD70B5040004D094F83900002512
:100A100010B106E0012070BD84F83850204600F087
:100A200023F8242084F839002068C16821F400519B
:100A3000C160204600F0FCF82068016921F4904173
:100A400001612068416921F02A0141612068C16883
:100A500041F40051C160E563202084F8390084F836
:100A60003A00002070BD000000B585B00021009163
:100A700001910291039100680F49884219D10F48F2
:100A8000C16941F40031C161C16901F400310491CF
:100A9000816941F0040181618069694600F00400C8
:100AA00004900C2000900220019003900448FFF76E
:100AB00083FB05B000BD0000004400400010024070
:100AC00000080140FEE7000030B585B0002424484E
:100AD0000094019402940394816941F010018161B2
:100AE000816901F010010491816941F02001816167
:100AF000816901F020010491816941F00401816163
:100B0000816901F004010491816941F0080181616A
:100B10008069144D00F0080004900022202128462E
:100B2000FFF72DFC681400900F48CDE901046946D9
:100B30000E48FFF741FB202000900120CDE9010481
:100B40000220039069462846FFF736FB0022114633
:100B50002820FFF783FC2820FFF774FC05B030BD88
:100B60000010024000080140000021100010014068
:100B7000FEE770470907090E002806DA00F00F00AB
:100B800000F1E02080F8141D704700F1E02080F8AB
:100B90000014704770477047FFF7FCBB30B58FB04B
:100BA00028216846FFF7C5FA14210AA8FFF7C1FA01
:100BB00002240120049000941020059000254FF499
:100BC0006010CDE9085007946846FFF785FD0AA933
:100BD0000F2081E831006002CDE90D0502210AA84D
:100BE000FFF76EFC0FB030BD0D48016841F0010108
:100BF000016041680B4A1140416001680A4A114096
:100C00000160016821F480210160416821F4FE0146
:100C100041604FF41F0181600449C00308607047C0
:100C2000001002400000FFF8FFFFF6FE08ED00E0B4
:100C30002DE9F041044600680169E26821F4405161
:100C4000114301612169A068084361690843216873
:100C5000CA6841F20C639A430243CA602068416942
:100C6000A26921F44071114341614C492068642517
:100C7000322688423CD1FFF7E9FC00EBC00101EBD2
:100C8000001061688900B0FBF1F7FFF7DFFC00EBB3
:100C9000C00101EB00106168B0468900B0FBF1F0C3
:100CA000B0FBF5F06FF01801484307EB800106EB4D
:100CB0000110B0FBF5F000F0F006FFF7C7FC00EB09
:100CC000C00101EB001061688900B0FBF1F0B0FBDE
:100CD000F5F006EB0016FFF7B9FC00EBC00101EBE5
:100CE000001061688900B0FBF1F7FFF7AFFC3BE053
:100CF000FFF79CFC00EBC00101EB0010616889006C
:100D0000B0FBF1F7FFF792FC00EBC00101EB001024
:100D10006168B0468900B0FBF1F0B0FBF5F06FF010
:100D20001801484307EB800106EB0110B0FBF5F01A
:100D300000F0F006FFF77AFC00EBC00101EB0010B9
:100D400061688900B0FBF1F0B0FBF5F006EB00162E
:100D5000FFF76CFC00EBC00101EB0010616889003B
:100D6000B0FBF1F7FFF762FC00EBC00101EB0010F4
:100D700061688900B0FBF1F0B0FBF5F06FF018018D
:100D8000484307EB800108EB0110B0FBF5F0216848
:100D900000F00F0030448860BDE8F0810038014069
:100DA000FEE702E008C8121F08C1002AFAD1704706
:100DB0007047002001E001C1121F002AFBD17047DB
:100DC000FFF7F0FAFFF7EAFEFFF77EFE0948084951
:100DD0000C2201604FF4E131416000218160C1606B
:100DE000C0E904128161C161FFF70CFEFEE700005B
:100DF000004400401000002000000000000000003F
:100E000001020304060708090000000001020304B0
:100E1000300E00080000002010000000A20D0008A5
:100E2000400E00081000002040040000B20D000831
:100E300001000000100000000000000000A24A04B1
:04000005080000ED02
:00000001FF
